:030000000235F6D0
:1035F60075C7AA75C75575FD5A75C7AA75C7557596
:10360600FDA5787FE4F6D8FD9000007FFF7E03E4F9
:0C361600F0A3DFFCDEFA75812002365DB7
:10281000420179000042017B000042017F0000423A
:0E2820000181000042017D00004201770000AE
:1000030043B14053B2BF43B18053B27F43B10853AE
:10001300B2F743B11053B2EF43B30253B4FD53E10C
:04002300FEC2EF2208
:10282E00410204004201E800004201E500004202BC
:10283E000900004201E300004101F4004201EA00F8
:10284E00004101FC004101F7004201EC0000410192
:10285E00FD004101F8004201EE00004101FE004181
:10286E0001F9004201F000004101FF004101FA00B0
:10287E004201F20000410200004101FB004201F55D
:10288E000000410201004102070042020200004125
:0C289E000208004101E7004202050000B2
:03003B00022FC2CF
:102FC200C0E0C0F0C083C082C0D075D000C000C0D5
:102FD20001C002C003C004C005C006C007E5EC7012
:102FE20003023155E5EC30E1239001E77401F090E2
:102FF200019D7403F0C294900250E4F0A37402F0B5
:10300200FF7E001239FC123AEA53ECFDE5EC20E2B5
:1030120003023152900021E4F0A37496F0C39000B1
:1030220013E09420900012E09400400302314F908C
:103032000009E07002A3E0600302314F90004DE00E
:10304200FEA3E0FF4E701B90004DF0A304F0C28E71
:10305200758B00758D00D28E9001A6E4F0A3F0026C
:10306200314FEF64014E600302314FC28EAF8DEFDC
:10307200FEAD8B7C00E42DFFEC3E900205F0A3EF49
:10308200F0758B00758D00900205E0FEA3E0FFD382
:103092009410EE9427401CEF9430EE9475501490E7
:1030A2000012E4F0A3F090002D1222E200000000D2
:1030B200023143900205E0FEA3E0FFD394F4EE94C4
:1030C200014032D3EF94D0EE94075029900013E0E0
:1030D20004F07006900012E004F090002DE0FCA3D2
:1030E200E0FDA3E0FEA3E0FF780112220590002D8F
:1030F2001222D6804C900205E0FEA3E0FFD394D0CA
:10310200EE94074048EF94A0EE940F5040900013C5
:10311200E004F07006900012E004F090002DE0FC54
:10312200A3E0FDA3E0FEA3E0FF7801122205EF2455
:1031320001FFE43EFEE43DFDE43CFC90002D122242
:10314200D6C28E758B00758D00D28EC28F53ECFB6A
:1031520075EC00D007D006D005D004D003D002D041
:0E31620001D000D0D0D082D083D0F0D0E032A7
:03008300022AB797
:102AB700C0E0C083C082C0D053C4EF90018EE064F1
:102AC7000170609001A7E004F070069001A6E00491
:102AD700F0D39001A7E094209001A6E09403403042
:102AE700E4F0A3F0900243E0B40125900247E0042C
:102AF700F07006900246E004F0D3900247E0941489
:102B0700900246E094004008E4F0A3F0900243F0FE
:102B1700900245E004F0E0C394284007E4F09002F7
:102B27004204F0900204E064016003022BC5C390E5
:102B370001E9E094E89001E8E09403500EA3E00473
:102B4700F0707B9001E8E004F080739001E8E4F016
:102B5700A3F0C39001E6E0943C9001E5E0940050B7
:102B67000EA3E004F070579001E5E004F0804F9069
:102B770001E5E4F0A3F0C390020AE0943C90020957
:102B8700E09400500EA3E004F07033900209E004D3
:102B9700F0802B900209E4F0A3F0C39001E4E094E5
:102BA700189001E3E09400500EA3E004F0700F903A
:102BB70001E3E004F080079001E3E4F0A3F0900163
:102BC700F4E0B401269001EBE004F070069001EA0E
:102BD700E004F0C39001EBE094E89001EAE094038D
:102BE7004009E4F0A3F09001FC04F09001F7E0B491
:102BF70001269001EDE004F070069001ECE004F08E
:102C0700C39001EDE094E89001ECE094034009E4FF
:102C1700F0A3F09001FD04F09001F8E0B4012690D4
:102C270001EFE004F070069001EEE004F0C39001BC
:102C3700EFE094059001EEE094004009E4F0A3F082
:102C47009001FE04F09001F9E0B401269001F1E053
:102C570004F070069001F0E004F0C39001F1E094F5
:102C6700059001F0E094004009E4F0A3F09001FF23
:102C770004F09001FBE0B401269001F6E004F07047
:102C8700069001F5E004F0C39001F6E09405900189
:102C9700F5E094004009E4F0A3F090020104F090FD
:102CA70001FAE0B401269001F3E004F07006900108
:102CB700F2E004F0C39001F3E094059001F2E09490
:102CC700004009E4F0A3F090020004F0900207E04E
:102CD700B40126900203E004F07006900202E004BB
:102CE700F0C3900203E09402900202E094004009CE
:102CF700E4F0A3F090020804F0D3900022E09400DF
:102D0700900021E094004044A3E024FFF0900021CC
:102D1700E034FFF0E07002A3E07031900012E07041
:102D270004A3E064207010900009F0A304F0900061
:102D370012E4F0A3F08015900012E4F0A3F09000E5
:102D47004DF0A3F0C28EF58BF58DC28FD0D0D08217
:052D5700D083D0E03242
:1028AA0044005B40C000004400673F8000004200D3
:1028BA0010000542001400054200160005420018E7
:1028CA00000542001A00054200230000440063414B
:1028DA0044CCCD440049413A3D71440045412FAEB4
:1028EA001444004141251EB8440039411A8F5C4402
:1028FA0000314110000044004F4144CCCD44005700
:10290A0041426666440025411000004400354118E2
:10291A00000044000C4142666644002940A00000C1
:10292A0044005340F00000440000427C0000440090
:10293A005F409000004400734080000044001C4047
:10294A00C0000044006F4100000044003D41700097
:10295A00004400044316000044006B422800004271
:10296A00004D00004200120000420009000042002F
:10297A0021000044002D0000000041002000410019
:06298A00080041000B00F3
:043B04008F828E839B
:033B0800E493FF44
:013B0B002297
:043303007F027E4087
:0833070090022DEEF0A3EFF09F
:10330F00E4FC90022DE0FEA3E07807CEC313CE13AA
:10331F00D8F97807C333CE33CED8F9FF90022FEE0A
:10332F00F0A3EFF0E4FCECFF900230E02FFF9002EF
:10333F002FE03400FE123B047E0074772CF582E4FC
:10334F003400F583EFF00CECB480DB7C0090022EA0
:10335F00E0547F2477F582EC3400F583EDF0900292
:10336F002FE0FEA3E0F5A6EEF5A775AEFFA2AF9294
:10337F0000C2AF75C7AA75C755439F01A20092AF90
:10338F00A2AF9200C2AF75C7AA75C75543A501A2D8
:10339F000092AF75AF22A2AF9200C2AF75C7AA75E8
:1033AF00C75543A401A20092AFA2AF9200C2AF755E
:1033BF00C7AA75C755439F01A20092AFA2AF920053
:1033CF00C2AF75C7AA75C75543A501A20092AF75C5
:1033DF00AF2190022FE0FEA3E02CF5A6EEF5A77427
:1033EF00772CF582E43400F583E0F5AEA2AF9200BE
:1033FF00C2AF75C7AA75C75543A401A20092AF0CFF
:10340F00ECB480CEA2AF9200C2AF75C7AA75C755F4
:10341F0053A5FEA20092AFA2AF9200C2AF75C7AA8A
:0A342F0075C755539FFEA20092AF2F
:013439002270
:10343A007F007E40123B04AB07EB645560137D5559
:10344A007F00123307E4FD7F017E401233071233F7
:10345A00037F017E40123B04AB07900020EBF07F14
:10346A0002123B04AB0790000BEFF0900199122275
:10347A00E2000004B09000631222E243A2F8159021
:10348A0000491222E2439BB61B9000451222E243F6
:10349A00951D089000411222E2438E83F69000396E
:1034AA001222E24387EAE39000311222E2436D8658
:1034BA009890004F1222E243A2F815900057122268
:1034CA00E243A054739000251222E2436D8698903D
:1034DA0000351222E2437AB8BD90000C1222E24370
:1034EA00A1A6449000291222E2431374BD9000530E
:1034FA001222E242C971509000001222E2444CCCDE
:10350A00CD90005F1222E2440A3D719000731222AC
:10351A00E243F5C29090001C1222E242864B8B9045
:10352A00006F1222E242D6DF4390006B1222E2427F
:03353A0028000066
:01353D00226B
:103A980043B30453B4FB43E90143E91043EA045335
:063AA800EBFB53ECFB22D6
:063170009002271222D696
:10317600900227E0FCA3E0FDA3E0FEA3E0FF7808B1
:103186001221F2AB07900227E0FCA3E0FDA3E0FECC
:10319600A3E0FF78101221F2A3EEF0A3EFF0EB24E8
:1031A600F0602924D0601124F0603624C8604C24D5
:1031B6008860030233020022E4900020F0FD7F01C4
:1031C6007E40123307E490000BF0802990002074B3
:1031D60001F0FDFF7E40123307E490000BF01D80E6
:1031E600149000207402F0FD7F017E40123307E444
:1031F60090000BF0FD123303E4801490000BE00402
:10320600F0E05401F0FD12330390000BE0704090A3
:1032160001A8F090019DF09001CCF0C285123AEA27
:10322600C294E4FFFE1239FCD294123AF97F197E59
:10323600001239FC7FE87E0312003EE4FFFE1239DD
:10324600FC123AEAC294E4FFFE1239FC0232DF9025
:10325600000BE0640160030233029001A8F09001C4
:103266009DF09001CCF0C285123AEAE4FFFE1239D5
:10327600FC7FC87E0012003ED294123AF97F237E6C
:10328600001239FC7FF47E0112003EE4FFFE123983
:10329600FC7FF47E0112003E7F237E001239FC7F04
:1032A600F47E0112003EE4FFFE1239FC7FF47E013B
:1032B60012003E7F237E001239FC7FF47E0112004D
:1032C6003EE4FFFE1239FC123AEAC294E4FFFE1213
:1032D60039FC7FF47E0112003EE49001A5F09001D6
:1032E600BF1222E2000000009001A11222E20000BB
:0C32F60000009001841222E200000000A1
:0133020022A8
:01003A0022A3
:1029900044023E00000000410242004202460000A4
:0C29A00041024300410245004102440096
:1036A200A2AF9200C2AF75C7AA75C755439F01A2C8
:1036B2000092AF75A604E4F5A775AEFF75AFC0A280
:1036C200AF9200C2AF75C7AA75C75543A401A20045
:1036D20092AFE5AE54F064F0705875AE0F75AFE17D
:1036E200A2AF9200C2AF75C7AA75C75543A401A283
:1036F2000092AFE59F20E6FBA2AF9200C2AF75C772
:10370200AA75C75553A5FBA20092AFA2AF9200C201
:10371200AF75C7AA75C755539FFEA20092AFC2AF3D
:1037220075C7AA75C755539FFD75C7AA75C7554377
:103732009F80A2AF9200C2AF75C7AA75C755539FAB
:06374200FEA20092AF227E
:1037CA00A2AF9200C2AF75C7AA75C755439720A288
:1037DA000092AFE59630E5FBA2AF9200C2AF75C783
:1037EA00AA75C7555396FBA20092AFA2AF9200C228
:1037FA00AF75C7AA75C7555396FDA20092AFE59754
:10380A0020E0FB1236A275C7AA75C75543AA07A2BC
:10381A00AF9200C2AF75C7AA75C75543AA40A200A6
:10382A0092AFE5AA44BFF460F9E4F5A8F59BF59CCC
:08383A00F5887F64FE02003EE8
:1038B500E4F5B1F5B2F5B3F5B4F5ACF5AD53B1DF5B
:1038C50043B220C285D28543B14053B2BF43B180D4
:1038D50053B27F53B3DF43B420C29543B11053B203
:1038E500EF43B10853B2F743B10253B2FD53E9FBBD
:1038F50043E90843EA0253EBFD43B30253B4FD43E6
:10390500B30453B4FB43E90143E91043EA0453EB21
:10391500FB43B30853B4F753B3EF43B410C2942237
:103AC4001237CA1238B5123AAE120027123A9812B7
:053AD40000030239931C
:033B2C0002343A26
:10353E0090018E7401F09001F7F09001F8F0900177
:10354E00F9F09001FAF0900207F0FB7A02790B1273
:10355E00007990020F1222E23A83126F9002131238
:10356E0022E2000000009002171222E2000000008A
:10357E00E4FFFE7D167C43900067E0F8A3E0F9A31C
:10358E00E0FAA3E0FB121DDEE4FBFA797A7844122E
:10359E001EE77BCD7ACC794C7844121DDE90020B5F
:1035AE001222D6E4900204F09001E8F0A3F090010C
:1035BE00E5F0A3F0900209F0A3F09001E3F0A3F080
:1035CE00900244F0A2AF9200C2AF75C7AA75C7555C
:1035DE0043AA80A20092AF43C408439B0253ECFD62
:0835EE00F5EC538EEFD2AF2281
:10374800123AC4123B2C12353EA2AF9200C2AF759A
:10375800C7AA75C75543AA40A20092AF900242E09B
:10376800B4011430930CE4900246F0A3F0900243A5
:1037780004F0E4900242F0900009E07004A3E064D1
:1037880001703790002DE0FCA3E0FDA3E0FEA3E06C
:10379800FF123170E4900012F0A3F090004DF0A3F6
:1037A800F090002D1222E200000000C28EE4F58B9A
:1037B800F58DC28F900009F0A3F0120086122D5CDF
:0237C8008087F8
:0F15A70090022BEBF0A3EAF0A3E9F0AB05AA0446
:1015B60090023A1222E240A00000AE02AF03AD074D
:1015C600AC06EC121FF6C004C005C006C0079002A8
:1015D6002BE0FBA3E0FAA3E0F9122218D003D00215
:1015E600D001D000121CE99002361222D69001B327
:1015F600E064017074FFFEFD7C40900236E0F8A3C3
:10160600E0F9A3E0FAA3E0FB121F846002501CE499
:10161600FFFEFD7CC0900236E0F8A3E0F9A3E0FAF5
:10162600A3E0FB121F8440030216E1E4FFFE7D8067
:101636007C40900236E0F8A3E0F9A3E0FAA3E0FBD1
:10164600121F8440030216E1E4FFFE7D807CC090F9
:101656000236E0F8A3E0F9A3E0FAA3E0FB121F8448
:101666006005400302177880729001A0E064017063
:1016760077FFFE7D807C3F900236E0F8A3E0F9A379
:10168600E0FAA3E0FB121F846002501DE4FFFE7D1A
:10169600807CBF900236E0F8A3E0F9A3E0FAA3E06D
:1016A600FB121F84400302172EE4FFFEFD7C4090D0
:1016B6000236E0F8A3E0F9A3E0FAA3E0FB121F84E8
:1016C60040028017E4FFFEFD7CC0900236E0F8A3DE
:1016D600E0F9A3E0FAA3E0FB121F8490023A12227B
:1016E600E2434800000217789001A0E0640260031C
:1016F600021778FFFE7D807C3F900236E0F8A3E07B
:10170600F9A3E0FAA3E0FB121F8460025026E4FF6F
:10171600FE7D807CBF900236E0F8A3E0F9A3E0FAF4
:10172600A3E0FB121F84400C9002361222E2000056
:101736000000803EE4FFFEFD7C40900236E0F8A308
:10174600E0F9A3E0FAA3E0FB121F84501BE4FFFEBE
:10175600FD7CC0900236E0F8A3E0F9A3E0FAA3E02E
:10176600FB121F846002500A90023A1222E242C81B
:10177600000090022BE0FBA3E0FAA3E02418F9E4B2
:101786003AFAC003C002C001122218900236E0F8ED
:10179600A3E0F9A3E0FAA3E0FB121CEDD001D0020E
:1017A600D00312226890022BE0FBA3E0FAA3E0F933
:1017B600900018122238E4FBFAF97840121F846070
:1017C60002501790022BE0FBA3E0FAA3E0F9900089
:1017D6001812231340000000803190022BE0FBA377
:1017E600E0FAA3E0F9900018122238E4FBFAF9783F
:1017F600C0121F84401590022BE0FBA3E0FAA3E081
:10180600F9900018122313C000000090022BE0FB91
:10181600A3E0FAA3E0F99000141222A6C000C001CA
:10182600C002C00390022BE0FBA3E0FAA3E0F9900C
:101836000010122238D003D002D001D000121CE9C9
:101846009002321222D690022BE0FBA3E0FAA3E02C
:10185600F99000101222389000141222829002365B
:10186600E0FCA3E0FDA3E0FEA3E0FF90001012223F
:10187600829000181222389000081222A6121DDE4D
:10188600C004C005C006C00790022BE0FBA3E0FA27
:10189600A3E0F9900004122238900236E0F8A3E0A3
:1018A600F9A3E0FAA3E0FB121DDE90023AE0F8A3EA
:1018B600E0F9A3E0FAA3E0FB121DDED003D002D0CC
:1018C60001D000121CEDC004C005C006C00790027E
:1018D6002BE0FBA3E0FAA3E0F990000C122238906B
:1018E6000232E0F8A3E0F9A3E0FAA3E0FB121DDE62
:1018F600D003D002D001D000121CED90022E12228D
:10190600D6E4FFFE7D407C40900236E0F8A3E0F985
:10191600A3E0FAA3E0FB121F84401CE4FFFE7DA0B7
:101926007C40900236E0F8A3E0F9A3E0FAA3E0FBDE
:10193600121F84603E403CE4FFFE7D407CC0900266
:1019460036E0F8A3E0F9A3E0FAA3E0FB121F8460F7
:10195600054003021A73E4FFFE7DA07CC0900236A8
:10196600E0F8A3E0F9A3E0FAA3E0FB121F8450031A
:10197600021A73900020E06003021A229001E3E04D
:101986007002A3E07055900209E07002A3E0704B6C
:10199600C39001E6E0941E9001E5E09400503CE41B
:1019A600FFFEFD7C4090022EE0F8A3E0F9A3E0FAEA
:1019B600A3E0FB121F844002807BE4FFFEFD7CC097
:1019C60090022EE0F8A3E0F9A3E0FAA3E0FB121FD1
:1019D6008460054003021CD7021A667FCD7ECC7D4B
:1019E600CC7C3D90022EE0F8A3E0F9A3E0FAA3E058
:1019F600FB121F844003021C587FCD7ECC7DCC7C1D
:101A0600BD90022EE0F8A3E0F9A3E0FAA3E0FB12F2
:101A16001F8460054003021CD7021C81E4FFFEFD03
:101A26007C4090022EE0F8A3E0F9A3E0FAA3E0FBE5
:101A3600121F84400D90022E1222E2400000000286
:101A46001CD7E4FFFEFD7CC090022EE0F8A3E0F96F
:101A5600A3E0FAA3E0FB121F8460054003021CD733
:101A660090022E1222E2C0000000021CD7E4FFFE04
:101A76007DA07C40900236E0F8A3E0F9A3E0FAA34B
:101A8600E0FB121F846002501DE4FFFE7DA07CC0B7
:101A9600900236E0F8A3E0F9A3E0FAA3E0FB121FF8
:101AA600844003021BAA900020E06003021B5790AB
:101AB60001E3E07002A3E07057900209E07002A310
:101AC600E0704DC39001E6E0941E9001E5E09400BD
:101AD600503EE4FFFE7DA07C4090022EE0F8A3E09D
:101AE600F9A3E0FAA3E0FB121F844002807DE4FF25
:101AF600FE7DA07CC090022EE0F8A3E0F9A3E0FAF8
:101B0600A3E0FB121F8460054003021CD7021B9D45
:101B16007FCD7ECC7DCC7C3D90022EE0F8A3E0F913
:101B2600A3E0FAA3E0FB121F844003021C587FCDFA
:101B36007ECC7DCC7CBD90022EE0F8A3E0F9A3E03C
:101B4600FAA3E0FB121F8460054003021CD7021CA7
:101B560081E4FFFE7DA07C4090022EE0F8A3E0F930
:101B6600A3E0FAA3E0FB121F84400D90022E12227E
:101B7600E240A00000021CD7E4FFFE7DA07CC090DE
:101B8600022EE0F8A3E0F9A3E0FAA3E0FB121F841B
:101B960060054003021CD790022E1222E2C0A0006C
:101BA60000021CD7900243E07003021C379000200D
:101BB600E070417FCD7ECC7DCC7C3D90022EE0F85E
:101BC600A3E0F9A3E0FAA3E0FB121F844003021C82
:101BD600587FCD7ECC7DCC7CBD90022EE0F8A3E074
:101BE600F9A3E0FAA3E0FB121F8460054003021C80
:101BF600D7021C81E4FFFEFD7C3F90022EE0F8A395
:101C0600E0F9A3E0FAA3E0FB121F844003021CA63E
:101C1600E4FFFEFD7CBF90022EE0F8A3E0F9A3E00E
:101C2600FAA3E0FB121F8460054003021CD7021CC6
:101C3600CD900020E070507FCD7ECC7DCC7C3D9059
:101C4600022EE0F8A3E0F9A3E0FAA3E0FB121F845A
:101C5600400C90022E1222E23DCCCCCD80737FCD7B
:101C66007ECC7DCC7CBD90022EE0F8A3E0F9A3E00B
:101C7600FAA3E0FB121F846002505690022E122235
:101C8600E2BDCCCCCD804AE4FFFEFD7C3F90022E27
:101C9600E0F8A3E0F9A3E0FAA3E0FB121F84400CEE
:101CA60090022E1222E23F0000008025E4FFFEFD96
:101CB6007CBF90022EE0F8A3E0F9A3E0FAA3E0FBD4
:101CC600121F846002500A90022E1222E2BF000008
:0F1CD6000090022EE0FCA3E0FDA3E0FEA3E0FFE0
:011CE50022DC
:090079007E007F1C7D000223378C
:0529AC00420250000092
:1039930043B32053B4DF538EBFA2AF9200C2AF75BF
:1039A300C7AA75C75543910143C62075C7AA75C7F2
:1039B300555391FEA20092AF53DF3F53D6DF53DF3F
:1039C300EF75D10375D9FFD2DCA2AF9200C2AF75F8
:1039D300C7AA75C755439101A20092AFE4F5C5F597
:1039E300CDA2AF9200C2AF75C7AA75C7555391FE5A
:0939F300A20092AFD2DEC2DD2277
:0B3AF90053B3DF43B420C295D2DF229C
:0F3AEA0043B32053B4DFC2DF43B32053B4DF2212
:1039FC00AD07AC06900250ECF0A3EDF0D39498EC2C
:103A0C009403501CA2AF9200C2AF75C7AA75C755DC
:103A1C00439101A20092AFEC5403F5C58DCD801DEE
:103A2C007C03A2AF9200C2AF75C7AA75C75543916C
:103A3C0001A20092AFEC5403F5C575CD98A2AF92DC
:103A4C0000C2AF75C7AA75C7555391FEA20092AFBD
:033A5C00D2DE2295
:1029B10041019F0041018E004201A600004101AA90
:1029C100004101A5004101C5004101830041019D74
:1029D100004101CC004101A80042018900004201EF
:1029E100DB00004201B900004201BC00004201C30A
:1029F10000004201B700004401A1000000004401B1
:102A0100BF0000000044018400000000440199005F
:102A11000000004401D700000000440190000000C4
:102A2100004101A9004201C8000041019E0041018D
:102A3100B5004101B401410188004101DE004101BD
:102A4100B6004101DD004101C7004101BB00410168
:102A5100C6014101B30041019400410195004101CA
:102A6100960041019700410198004401DF000000F8
:102A71000041018B0041018C0041018D0041018F1A
:102A8100004101BE004101A0004201CA0000420113
:102A9100CD00004201CF00004201D100004201D32C
:102AA10000004201D500004401AB000000004401D8
:052AB100AF0000000071
:100086009001FCE0B40102E4F09001FDE06401702F
:100096005C7F01122417900179EEF0A3EFF0D39460
:1000A60003EE94004028E094EC900179E09401502E
:1000B6001D90019EE004F0E49001B5F090019EE0F1
:1000C600C3940A4023E4F09001B404F0801A90012E
:1000D600B5E004F0E490019EF09001B5E0C3940A07
:1000E6004006E4F09001B4F0E49001FDF09001FECA
:1000F600E06401600302069C7F0212241790017BD4
:10010600EEF0A3EFF07F0312241790017FEEF0A329
:10011600EFF090017BE0FCA3E0FDE4121FF67BCD3F
:100126007ACC794C7844121EE79001AB1222D69015
:10013600017FE0FCA3E0FDE4121FF67BCD7ACC79CB
:100146004C7844121EE77BEC7A5179F87841121DFF
:10015600DE9001AF1222D69001ABE0FCA3E0FDA336
:10016600E0FEA3E0FFA3E0F8A3E0F9A3E0FAA3E032
:10017600FB121F846002500302042590017FE0FCFD
:10018600A3E0FDE4121FF67BCD7ACC794C784412BD
:100196001EE77BEC7A5179F87841121DDE9001ABAF
:1001A600E0F8A3E0F9A3E0FAA3E0FB121CE9900152
:1001B600AF1222D69001AFE0FCA3E0FDA3E0FEA3C0
:1001C600E0FFE4FBFA79C87842121EE79001AF120D
:1001D60022D69001ABE0FCA3E0FDA3E0FEA3E0FF86
:1001E6007B337A3379C77841121EE79001AB12222E
:1001F600D69001ABE0FCA3E0FDA3E0FEA3E0FFA3E5
:10020600E0F8A3E0F9A3E0FAA3E0FB121F84500391
:100216000203059001ABE0F8A3E0F9A3E0FAA3E03E
:10022600FBA3E0FCA3E0FDA3E0FEA3E0FF121CE9B4
:100236009001AB1222D69001ABE0FCA3E0FDA3E057
:10024600FEA3E0FFE4FBFA79C87842121DDE9001B6
:10025600AB1222D690017BE0FCA3E0FDE4121FF670
:100266007BCD7ACC794C7844121EE79001AF1222EE
:10027600D69001ABE0F8A3E0F9A3E0FAA3E0FBA374
:10028600E0FCA3E0FDA3E0FEA3E0FF121CE9900161
:10029600AB1222D690017FE0FCA3E0FDE4121FF62C
:1002A6007BCD7ACC794C7844121EE77BEC7A517977
:1002B600F87841121DDE9001AF1222D69001AFE010
:1002C600FCA3E0FDA3E0FEA3E0FF9001ABE0F8A3F2
:1002D600E0F9A3E0FAA3E0FB121CE99001AF1222B9
:1002E600D6E4FFFEFDFC9001AFE0F8A3E0F9A3E041
:1002F600FAA3E0FB121F8440030203F50203EB900E
:1003060001ABE0FCA3E0FDA3E0FEA3E0FFA3E0F861
:10031600A3E0F9A3E0FAA3E0FB121CE99001AB12FB
:1003260022D69001ABE0FCA3E0FDA3E0FEA3E0FF34
:10033600E4FBFA79C87842121DDE9001AB1222D690
:1003460090017BE0FCA3E0FDE4121FF67BCD7ACCA6
:10035600794C7844121EE79001AF1222D69001AB79
:10036600E0FCA3E0FDA3E0FEA3E0FFA3E0F8A3E02A
:10037600F9A3E0FAA3E0FB121CED9001AB1222D622
:1003860090017FE0FCA3E0FDE4121FF67BCD7ACC62
:10039600794C7844121EE77BEC7A5179F878411251
:1003A6001DDE9001AF1222D69001AFE0FCA3E0FD66
:1003B600A3E0FEA3E0FF9001ABE0F8A3E0F9A3E021
:1003C600FAA3E0FB121CE99001AF1222D6E4FFFE6D
:1003D600FDFC9001AFE0F8A3E0F9A3E0FAA3E0FB8F
:1003E600121F84500A9001AF1222E200000000E4BE
:1003F600FBFA797478429001AFE0FCA3E0FDA3E03C
:10040600FEA3E0FF121EE77BCD7ACC794C7844122E
:100416001DDE12202F90017BEEF0A3EFF0800A90F4
:10042600017B7403F0A37433F09001C7E06003020C
:10043600054790017BE0FCA3E0FDE4121FF6900067
:100446001CE0F8A3E0F9A3E0FAA3E0FB121F844046
:10045600619001A1E0FCA3E0FDA3E0FEA3E024017E
:10046600FFE43EFEE43DFDE43CFC9001A11222D6F1
:100476009001BF1222E200000000900199E0FCA367
:10048600E0FDA3E0FEA3E0FF9001A1E0F8A3E0F900
:10049600A3E0FAA3E0FBD31221E150030205479043
:1004A60001A11222E2000000009001A57402F002F0
:1004B600054790017BE0FCA3E0FDE4121FF69000E7
:1004C6006FE0F8A3E0F9A3E0FAA3E0FB121F845063
:1004D6005C9001BFE0FCA3E0FDA3E0FEA3E02401E5
:1004E600FFE43EFEE43DFDE43CFC9001BF1222D653
:1004F6009001A11222E200000000900199E0FCA305
:10050600E0FDA3E0FEA3E0FF9001BFE0F8A3E0F961
:10051600A3E0FAA3E0FBD31221E140259001BF122C
:1005260022E200000000E49001A5F080149001BFD3
:100536001222E2000000009001A11222E200000057
:100546000090017BE0FCA3E0FDE4121FF690006F33
:10055600E0F8A3E0F9A3E0FAA3E0FB121F8460022F
:10056600507CC390017CE0949290017BE094015012
:100576006D900184E0FCA3E0FDA3E0FEA3E024016E
:10058600FFE43EFEE43DFDE43CFC9001841222D6ED
:10059600900199E0FCA3E0FDA3E0FEA3E0FF90013B
:1005A60084E0F8A3E0F9A3E0FAA3E0FBD31221E18B
:1005B60040539001841222E2000000009001A574CD
:1005C60001F09001BF1222E2000000009001A1128A
:1005D60022E2000000009001C77401F08027C3905A
:1005E600017CE0949290017BE09401900184400E9E
:1005F6001222E200000000E49001A5F0800712221A
:10060600E2000000009001C7E06401600302069763
:1006160090017BE0FCA3E0FDE4121FF690001CE0D5
:10062600F8A3E0F9A3E0FAA3E0FB121F8440589078
:1006360001A1E0FCA3E0FDA3E0FEA3E02401FFE4AA
:100646003EFEE43DFDE43CFC9001A11222D6900161
:1006560099E0FCA3E0FDA3E0FEA3E0FF9001A1E08A
:10066600F8A3E0F9A3E0FAA3E0FBD31221E14021CD
:100676009001A11222E2000000009001A57402F090
:10068600E49001C7F0800A9001A11222E200000066
:1006960000E49001FEF0900201E0B40114E4900140
:1006A6007DF0A3F090019FE0B4010100E490020107
:1006B600F09001FFE06401600302087D7F031224CD
:1006C6001790017FEEF0A3EFF0FDAC06E4121FF6E3
:1006D6007B6F7A9679A77843121F84601E401C9020
:1006E60001CCE070169001DDE004F0E0C3946440B4
:1006F6003BE4F0A304F09001CC802C90017FE0FC59
:10070600A3E0FDE4121FF67B6F7A9679A778431271
:100716001F84600250169001CCE0D39401500DE482
:100726009001DEF09001DDF09001C5F090017FE0D0
:10073600FCA3E0FDE4121FF6900057E0F8A3E0F9F1
:10074600A3E0FAA3E0FB121F84601740159001CCCA
:10075600E0B4020E7403F09001887401F0D28502B1
:10076600087890017FE0FCA3E0FDE4121FF69000FC
:1007760057E0F8A3E0F9A3E0FAA3E0FB121F8460B8
:100786000250119001CCE0B4020AE4900188F0C254
:100796008502087890017FE0FCA3E0FDE4121FF6D5
:1007A60090004FE0F8A3E0F9A3E0FAA3E0FB121FE4
:1007B60084605F405D9001CCE0C394034054900197
:1007C6007DE0FCA3E0FDE4121FF6900029E0F8A30B
:1007D600E0F9A3E0FAA3E0FB121F84602C402A9004
:1007E60001CCE0C3940340219001C9E004F07006F7
:1007F6009001C8E004F0D39001C9E094059001C8C7
:10080600E094004004E4F0A3F0E4900189F0A3F042
:10081600806090017FE0FCA3E0FDE4121FF69000EB
:100826004FE0F8A3E0F9A3E0FAA3E0FB121F84600F
:1008360002503F9001CCE0FFC39403403590018AFB
:10084600E004F07006900189E004F0D390018AE09C
:1008560094E8900189E094034018E4F0A3F0EF9443
:1008660003400F9001CC7405F0C285E4900188F036
:1008760080FEE49001FFF0900200E0640160030254
:100886000A6F900181F0A3F090019FE0640260037B
:10089600020A6A7F04122417900181EEF0A3EFF09A
:1008A600FDAC06E4121FF6900053E0F8A3E0F9A3AE
:1008B600E0FAA3E0FB121F846064406290019DE0B1
:1008C6006402705AFFFEFDFC90020BE0F8A3E0F90B
:1008D600A3E0FAA3E0FB121F84604340419001BAF3
:1008E600E004F070069001B9E004F0D39001BAE09C
:1008F60094E89001B9E0940350030209F5E4F0A3EB
:10090600F0900250F0A3F0FFFE1239FCE49001B61D
:10091600F07F01FE12003E123AEAC29480FE900178
:1009260081E0FCA3E0FDE4121FF6900053E0F8A37B
:10093600E0F9A3E0FAA3E0FB121F8460054003027E
:1009460009EEE4FFFEFD7C40900053E0F8A3E0F9D9
:10095600A3E0FAA3E0FB121DDEC004C005C006C07A
:1009660007900181E0FCA3E0FDE4121FF6A804A9AC
:1009760005AA06AB07D007D006D005D004121F84FF
:10098600506690019DE06402705EFFFEFDFC9002E1
:100996000BE0F8A3E0F9A3E0FAA3E0FB121F8460E2
:1009A6004740459001BAE004F070069001B9E004B2
:1009B600F0D39001BAE094E89001B9E09403402F97
:1009C600E4F0A3F090019D7403F0E4900250F0A3CC
:1009D600F0FFFE1239FCE49001B6F07F01FE120032
:1009E6003E123AEAC29480FEE49001B9F0A3F09078
:1009F6000181E0FCA3E0FDE4121FF6900000E0F8A0
:100A0600A3E0F9A3E0FAA3E0FB121F84504F900184
:100A16009DE0640270479001BDE004F0700690010D
:100A2600BCE004F0D39001BDE094E89001BCE094F2
:100A360003403190019D7403F0E49001BCF0A3F0F3
:100A4600900250F0A3F0FFFE1239FCE49001B6F0DC
:100A56007F01FE12003E123AEAC29480FEE4900143
:100A6600BCF0A3F0E4900200F0900208E06401609C
:100A7600030215A6900177F0A3F090019FE06402AF
:100A860060030215A17F0A122417900177EEF0A3E6
:100A9600EFF0FDAC06E4121FF690005FE0F8A3E06D
:100AA600F9A3E0FAA3E0FB121F84505090019DE0E9
:100AB600640270489001C4E004F070069001C3E03F
:100AC60004F0D39001C4E094149001C3E094004074
:100AD6003290019D7403F0E4900250F0A3F0FFFE03
:100AE6001239FC7F017E0012003E123AEAC294E4FB
:100AF6009001C3F0A3F09001B6F080FEE49001C32C
:100B0600F0A3F090017FE0FCA3E0FDE4121FF69055
:100B16000035E0F8A3E0F9A3E0FAA3E0FB121F8496
:100B2600501A90019DE0B401137402F09001B614BE
:100B3600F0900204F0D294123AF9802F90017FE0EF
:100B4600FCA3E0FDE4121FF6900035E0F8A3E0F9FF
:100B5600A3E0FAA3E0FB121F84401090019DE0B4CD
:100B66000109E49001B6F0900204F090019DE06462
:100B7600026003020C0A7F0312241790017FEEF035
:100B8600A3EFF0E4FFFE7D167C43900067E0F8A338
:100B9600E0F9A3E0FAA3E0FB121DDEE4FBFA797AA2
:100BA6007844121EE77BCD7ACC794C7844121DDE50
:100BB600C004C005C006C007900177E0FCA3E0FDB5
:100BC600E4121FF6D003D002D001D000121EE77B3C
:100BD6003F7AE879287841121DDEC004C005C006B8
:100BE600C00790017FE0FCA3E0FDE4121FF6D003EE
:100BF600D002D001D000121CED12202F90017FEE02
:100C0600F0A3EFF090017FE0FCA3E0FDE4121FF6F5
:100C1600900025E0F8A3E0F9A3E0FAA3E0FB121F99
:100C2600846005400302153690019DE0640260036E
:100C3600021536900177E0FCA3E0FDE4121FF69062
:100C46000073E0F8A3E0F9A3E0FAA3E0FB121F8427
:100C560050030214E590019DE0640260030214E56E
:100C6600900010A3E0FF900194F0FE900014A3E022
:100C7600FDEF2DFF900195F0900016A3E02FFF9059
:100C86000196F0900018A3E02FFF900197F09000D6
:100C96001AA3E02F900198F0EEFF7E009001E3E0AA
:100CA600FCA3E0FDC39FEC9E500E9001BBE09401B7
:100CB60050067401F0020D65C3ED9FEC9E401A903C
:100CC6000195E0FFED9FEC9400500E9001BBE0947F
:100CD6000250067402F0020D65900195E0FFC3ED27
:100CE6009FEC9400401DA3E0FF9001E4E09F90017B
:100CF600E3E09400500D9001BBE0940350057403AB
:100D0600F0805C900196E0FF9001E3E0FCA3E0FD3B
:100D1600C39FEC94004019900197E0FFED9FEC947F
:100D260000500D9001BBE0940450057404F0802F30
:100D3600900197E0FFC3ED9FEC9400401DA3E0FFF8
:100D46009001E4E09F9001E3E09400500D9001BB18
:100D5600E0940550057405F08005E49001BBF09021
:100D6600017FE0FCA3E0FDE4121FF6900049E0F8E5
:100D7600A3E0F9A3E0FAA3E0FB121F84504C900114
:100D8600C6E0940150449001CBE004F07006900157
:100D9600CAE004F0E49001CDF0A3F0A3F0A3F0A321
:100DA600F0A3F0A3F0A3F0A3F0A3F0D39001CBE05F
:100DB60094649001CAE0940050030210939001C617
:100DC6007401F0E49001CA02109090017FE0FCA348
:100DD600E0FDE4121FF6900045E0F8A3E0F9A3E079
:100DE600FAA3E0FB121F84506E90017FE0FCA3E0A3
:100DF600FDE4121FF6900049E0F8A3E0F9A3E0FA3B
:100E0600A3E0FB121F84404F9001C6E0D39402502A
:100E1600469001CEE004F070069001CDE004F0E4C7
:100E26009001CAF0A3F09001CFF0A3F0A3F0A3F0D5
:100E3600A3F0A3F0A3F0A3F0D39001CEE0946490C6
:100E460001CDE0940050030210939001C67402F0A5
:100E5600E49001CD02109090017FE0FCA3E0FDE458
:100E6600121FF6900041E0F8A3E0F9A3E0FAA3E030
:100E7600FB121F84507090017FE0FCA3E0FDE4129A
:100E86001FF6900045E0F8A3E0F9A3E0FAA3E0FB23
:100E9600121F8440519001C6E0D39403504890013C
:100EA600D0E004F070069001CFE004F0E49001CDAC
:100EB600F0A3F09001CAF0A3F09001D1F0A3F0A343
:100EC600F0A3F0A3F0A3F0D39001D0E094649001D6
:100ED600CFE0940050030210939001C67403F0E42F
:100EE6009001CF02109090017FE0FCA3E0FDE41298
:100EF6001FF6900039E0F8A3E0F9A3E0FAA3E0FBBF
:100F0600121F84507090017FE0FCA3E0FDE4121FE5
:100F1600F6900041E0F8A3E0F9A3E0FAA3E0FB12A3
:100F26001F8440519001C6E0D3940450489001D2EA
:100F3600E004F070069001D1E004F0E49001CDF0F9
:100F4600A3F0A3F0A3F09001CAF0A3F09001D3F0B0
:100F5600A3F0A3F0A3F0D39001D2E094649001D162
:100F6600E0940050030210939001C67404F0E490DC
:100F760001D102109090017FE0FCA3E0FDE4121F76
:100F8600F6900031E0F8A3E0F9A3E0FAA3E0FB1243
:100F96001F84507090017FE0FCA3E0FDE4121FF671
:100FA600900039E0F8A3E0F9A3E0FAA3E0FB121FF2
:100FB6008440519001C6E0D3940550489001D4E096
:100FC60004F070069001D3E004F0E49001CDF0A3A4
:100FD600F0A3F0A3F0A3F0A3F09001CAF0A3F09061
:100FE60001D5F0A3F0D39001D4E094649001D3E04E
:100FF600940050030210939001C67405F0E490012A
:10100600D302109090017FE0FCA3E0FDE4121FF6EE
:10101600900031E0F8A3E0F9A3E0FAA3E0FB121F89
:1010260084604D404B9001C6E0D394065042900137
:10103600D6E004F070069001D5E004F0E49001CD0E
:10104600F0A3F0A3F0A3F0A3F0A3F0A3F0A3F09015
:1010560001CAF0A3F0D39001D6E094649001D5E0E4
:10106600940040299001C67406F0E49001D5801AD8
:10107600E49001CAF0A3F09001CDF0A3F0A3F0A391
:10108600F0A3F0A3F0A3F0A3F0A3F0A3F0E4FFFE17
:101096007D167C43900067E0F8A3E0F9A3E0FAA38D
:1010A600E0FB121DDEE4FBFA797A7844121EE77B38
:1010B600CD7ACC794C7844121DDE90020B1222D6E2
:1010C60090020BE0FCA3E0FDA3E0FEA3E0FF90028C
:1010D600271222D69001C6E0FBB4011190020BE064
:1010E600FCA3E0FDA3E0FEA3E0FF021199EBB4022E
:1010F6001C90020BE0FCA3E0FDA3E0FEA3E0FF7B57
:101106009A7A997919783F121DDE0211999001C6D3
:10111600E0B4031B90020BE0FCA3E0FDA3E0FEA3FA
:10112600E0FF7B337A3379B3783E121DDE8064901C
:1011360001C6E0B4041B90020BE0FCA3E0FDA3E0B3
:10114600FEA3E0FF7BCD7ACC794C783E121DDE8083
:10115600429001C6E0B4051B90020BE0FCA3E0FD43
:10116600A3E0FEA3E0FF7BCD7ACC79CC783D121DBF
:10117600DE80209001C6E0B4061F90020BE0FCA3BF
:10118600E0FDA3E0FEA3E0FF7B8F7AC279F5783C11
:10119600121DDE90020B1222D6900020E0600302A0
:1011A60012769001AAE060030212769001E3E070E5
:1011B60002A3E07046C390020AE0941E900209E082
:1011C600940050379001C6E0B405197FCD7ECC7DE2
:1011D6004C7C3D900227E0F8A3E0F9A3E0FAA3E0F7
:1011E600FB0213AE90020BE0FCA3E0FDA3E0FEA31E
:1011F600E0FFE4FBFAF9783F0213AE900243E0B455
:1012060001369001C6E0B405187FCD7ECC7D4C7CBE
:101216003D900227E0F8A3E0F9A3E0FAA3E0FB8003
:101226001490020BE0FCA3E0FDA3E0FEA3E0FFE4C4
:10123600FBFAF9783F0213AE9001C6E0B405187FB9
:10124600CD7ECC7D4C7C3D900227E0F8A3E0F9A34F
:10125600E0FAA3E0FB801690020BE0FCA3E0FDA3FE
:10126600E0FEA3E0FF7B337A3379B3783E0213AE18
:10127600900020E0B401149001AAE0700E900243A1
:10128600E0B40104000213B7021398900020E06452
:101296000260030213B79001AAE060030213B7903D
:1012A60001BBE06401600302137C9001C6E0FFC34A
:1012B6009404400302137C9001E3E07002A3E07003
:1012C60042C390020AE0941E900209E09400503353
:1012D600EFB405187FCD7ECC7D4C7C3D900227E097
:1012E600F8A3E0F9A3E0FAA3E0FB801490020BE078
:1012F600FCA3E0FDA3E0FEA3E0FFE4FBFAF9783FE0
:101306000213AE900243E0B401359001C6E0B40585
:10131600187FCD7ECC7D4C7C3D900227E0F8A3E083
:10132600F9A3E0FAA3E0FB801490020BE0FCA3E033
:10133600FDA3E0FEA3E0FFE4FBFAF9783F806990A5
:1013460001C6E0B405187FCD7ECC7D4C7C3D900275
:1013560027E0F8A3E0F9A3E0FAA3E0FB80169002E9
:101366000BE0FCA3E0FDA3E0FEA3E0FF7B337A33B2
:1013760079B3783E80329001BBE0C3940250099065
:1013860001C6E0C394044029900243E0B40103007F
:10139600801F7FCD7ECC7D4C7C3D900227E0F8A35C
:1013A600E0F9A3E0FAA3E0FB121DDE90020B122285
:1013B600D690000BE0B401109001AAE0700A9002EA
:1013C6000B1222E2000000009001A07401F0FB7AEB
:1013D60002790B900177E0FCA3E0FD1215A79001BE
:1013E600901222D69001D7E0FCA3E0FDA3E0FEA375
:1013F600E0FF900190E0F8A3E0F9A3E0FAA3E0FB98
:10140600121CED9001D71222D6E4FFFE7D667C44C5
:101416009001D7E0F8A3E0F9A3E0FAA3E0FB121FDE
:1014260084400C9001D71222E2446600008025E435
:10143600FFFEFD7C409001D7E0F8A3E0F9A3E0FAB7
:10144600A3E0FB121F846002500A9001D71222E229
:10145600400000009001D7E0FCA3E0FDA3E0FEA35E
:10146600E0FF12202F900250EEF0A3EFF0E4FFFE13
:10147600FDFC90020BE0F8A3E0F9A3E0FAA3E0FB81
:10148600121F847008900250F0A3F0803FE4FFFE24
:101496007D807C3F90020BE0F8A3E0F9A3E0FAA37D
:1014A600E0FB121F8460025023E4FFFEFDFC900265
:1014B6000BE0F8A3E0F9A3E0FAA3E0FB121F8460B7
:1014C6000B4009900250E4F0A37419F0900250E02A
:1014D600FEA3E0FF1239FCE49001B3F002159A90E6
:1014E6000177E0FCA3E0FDE4121FF6900073E0F83C
:1014F600A3E0F9A3E0FAA3E0FB121F844003021560
:101506009A90019DE0B40226D3900251E094009097
:101516000250E09400400CA3E024FFF0900250E05B
:1015260034FFF0900250E0FEA3E0FF1239FC806425
:1015360090017FE0FCA3E0FDE4121FF6900025E099
:10154600F8A3E0F9A3E0FAA3E0FB121F846045408C
:101556004390019DE0B4023C9001B8E004F07006AF
:101566009001B7E004F0D39001B8E094E89001B799
:10157600E09403402690019D7403F0E4900250F03D
:10158600A3F0FFFE1239FCE49001B7F0A3F090013E
:10159600B6F080FEE49001B7F0A3F0E4900208F004
:0115A6002222
:10241700AE0753E1FEEF6401701353E8F043E8039E
:1024270043B14053B2BFF5F643F608805EEF64024E
:10243700701353E8F043E80243B18053B27FF5F6D7
:1024470043F6048046EF6403701353E8F043E8064D
:1024570043B10853B2F7F5F643F640802EEF640414
:10246700701353E8F043E80543B11053B2EFF5F6A4
:1024770043F6208016EFB40A1553E8F043E8074304
:10248700B30253B4FDE4F5F643F68043E10143E1BB
:1024970001EE640A6008EE640960030226DFE49037
:1024A700022BF043E101123AD9C2EFD2EE30EFFD31
:1024B700C2EFAFC3EF75F010A4FFE5C2540F7C0065
:1024C7002FFFEC35F0FE90022BE025E024F7F58294
:1024D700E43400F583EEF0A3EFF053E1FE90022B16
:1024E700E004F0E0C3943340BAE490022CF0E490A7
:1024F700022BF090022CE0FFC374329FFF90022B57
:10250700E0C39F4003022593E0FF25E024F9F5820D
:10251700E43400F583E0FCA3E0FDEF25E024F7F5C4
:1025270082E43400F583E0FEA3E0D39DEE9C4053A4
:1025370090022BE025E024F7F582E43400F583E0F0
:10254700FCA3E0FD90022DECF0A3EDF0EF25E024D5
:10255700F9F582E43400F583E0FEA3E0FF90022B57
:10256700E0FB25E024F7F582E43400F583EEF0A3E1
:10257700EFF0EB25E024F9F582E43400F583ECF085
:10258700A3EDF090022BE004F00224FA90022CE075
:1025970004F0E0643260030224F553E1FE90012B5E
:1025A700E0FEA3E0FF900128E02FFF900127E03E27
:1025B700FE900124E02FFF900123E03EFE900130C2
:1025C700E02FFF90012FE03EFE900120E02FFF90CB
:1025D700011FE03EFE900134E02FFF900133E03E03
:1025E700FE90011CE02FFF90011BE03EFE9001389A
:1025F700E02FFF900137E03EFE900118E02FFF909B
:102607000117E03EFE90013CE02FFF90013BE03ECA
:10261700FE900114E02FFF900113E03EFE90014071
:10262700E02FFF90013FE03EFE900110E02FFF906A
:10263700010FE03EFE900144E02FFF900143E03E92
:10264700FE90010CE02FFF90010BE03EFE90014849
:10265700E02FFF900147E03EFE900108E02FFF903A
:102667000107E03EFE90014CE02FFF90014BE03E5A
:10267700FE900104E02FFF900103E03EFE90015021
:10268700E02FFF90014FE03EFE900100E02FFF900A
:1026970000FFE03EFE900154E02FFF900153E03E23
:1026A700FE9000FCE02FFF9000FBE03EFE900158FB
:1026B700E02FFF900157E03EFE9000F8E02FFF90DB
:1026C70000F7E03EFE90015CE02FFF90015BE03EEB
:1026D700FE7C007D1A0220B0E490022BF043E1015A
:1026E700123AD9123AD9123AD9123AD9123AD91218
:1026F7003AD9123AD9123AD9123AD9C2EFD2EE30B0
:10270700EFFDC2EFAFC3EF75F010A4FFE5C2540FA2
:102717007C002FFFEC35F0FE90022BE025E024F73C
:10272700F582E43400F583EEF0A3EFF053E1FE9079
:10273700022BE004F0E0C3940B40A2E490022CF0DB
:10274700E490022BF090022CE0FFC3740B9FFF90E4
:10275700022BE0C39F40030227E5E0FF25E024F9B1
:10276700F582E43400F583E0FCA3E0FDEF25E024E7
:10277700F7F582E43400F583E0FEA3E0D39DEE9CF9
:10278700405390022BE025E024F7F582E43400F56E
:1027970083E0FCA3E0FD90022DECF0A3EDF0EF2524
:1027A700E024F9F582E43400F583E0FEA3E0FF902E
:1027B700022BE0FB25E024F7F582E43400F583EEF5
:1027C700F0A3EFF0EB25E024F9F582E43400F5837C
:1027D700ECF0A3EDF090022BE004F002274C9002FE
:1027E7002CE004F0E0640A600302274753E1FE90FF
:1027F7000103E0FEA3E0FF900100E02FFF9000FF40
:08280700E03EC313FEEF13FFD6
:01280F0022A6
:102D5C009001E7E0B40117E49001C3F0A3F09001F7
:102D6C008304F0E49001E7F09001B6F080FE90014E
:102D7C00AAE0FF702E9001A5E0FEB401109001C5F1
:102D8C00E0B401099001B4E0B40102801AEEB4027F
:102D9C00109001C5E0B401099001B4E0B4010280C7
:102DAC0015801BEFB4010890019F7401F080149002
:102DBC0001AAE0B4020890019F7402F08005E4902F
:102DCC00019FF090019FE0147003022EA914700370
:102DDC00022F0024026003022FC19001A8E06003BF
:102DEC00022FC19001DEF0900188F09001B6F0C284
:102DFC0085123AEAE4FFFE1239FCC294E4900250C8
:102E0C00F0A3F09001D71222E2412000007B017A5E
:102E1C0002790B12007990020F1222E23A83126FA0
:102E2C009002131222E2000000009002171222E21C
:102E3C0000000000E4FFFE7D167C43900067E0F884
:102E4C00A3E0F9A3E0FAA3E0FB121DDEE4FBFA79A0
:102E5C007A7844121EE77BCD7ACC794C7844121DDB
:102E6C00DE90020B1222D6E4900204F09001E8F0FE
:102E7C00A3F09001E5F0A3F0900209F0A3F090010B
:102E8C00E3F0A3F09001B3F09001BBF09001C60405
:102E9C00F09001A8F0E490019DF0022FBD9001CCC0
:102EAC00E064016003022FC19001B604F0123AEA0B
:102EBC00E4FFFE1239FCC294C285E4900204F09047
:102ECC0001E8F0A3F09001E5F0A3F0900209F0A363
:102EDC00F09001E3F0A3F09001B3F09001BBF090FF
:102EEC0001C604F0E49001A8F090019DF09001CC93
:102EFC007402F02290019DE06003022FC1900188C2
:102F0C0004F0C285C294123AEA9001D71222E2412F
:102F1C00200000900250E4F0A3740AF0FF7E00122F
:102F2C0039FC7B017A02790B12007990020F122284
:102F3C00E23A83126F9002131222E200000000901A
:102F4C0002171222E200000000E4FFFE7D167C4313
:102F5C00900067E0F8A3E0F9A3E0FAA3E0FB121DF0
:102F6C00DEE4FBFA797A7844121EE77BCD7ACC79D1
:102F7C004C7844121DDE90020B1222D6E49002040F
:102F8C00F09001E8F0A3F09001E5F0A3F0900209B5
:102F9C00F0A3F09001E3F0A3F09001B3F09001BB2B
:102FAC00F09001C604F0E49001A8F090019D04F0AB
:062FBC00E49001CCF022BC
:1000270053890F438910538EEFC28FC28EE4F58B2D
:03003700F58D2222
:103AAE0053C4F775C6FF75C50653C4E043C4065329
:063ABE00C4EF439C02224C
:103AD90000000000000000000000000000000000DD
:013AE90022BA
:10003E00E4FDFCC3ED9FEC9E5030E4FBFA000000A3
:10004E0000000000000BBB00010ABA07F0BBD0EDA8
:10005E00A2AF9200C2AF75C7AA75C75543AA40A2F8
:0A006E000092AF0DBD00010C80C927
:010078002265
:103A5F0053B1BF53B2BF53B17F53B27F7598504329
:103A6F008920438780438E1053C4DFAB07AA06A972
:103A7F0005A8047F407E427D0F7C00122141EF0498
:093A8F00F404F58DD28ED29922C7
:103842009002481222D653B1BF53B2BF53B17F5335
:10385200B27F75985043878053C4F843C4209002C6
:1038620048E0F8A3E0F9A3E0FAA3E0FB7F407E4240
:103872007D0F7C00122141C374FF9FFF74FF9EFEE7
:10388200E49DFDE49CFC78081221F28FC690024868
:10389200E0F8A3E0F9A3E0FAA3E0FB7F407E427DDB
:1038A2000F7C00122141C374FF9FFF8FC543C408E0
:0338B200D2992286
:073B0C003098FDAF99C2984B
:013B1300228F
:083B1400C2998F993099FD223E
:1039250090024C1222D653B1FB53B2FB53B3BF5393
:10393500B4BF75F85075C40853C4DF90024CE0F865
:10394500A3E0F9A3E0FAA3E0FB7F407E427D0F7C74
:1039550000122141C374FF9FFF74FF9EFEE49DFD8D
:10396500E49CFC78081221F28FC690024CE0F8A383
:10397500E0F9A3E0FAA3E0FB7F407E427D0F7C00E7
:0E398500122141C374FF9FFF8FC543C4082267
:073B1C0030F8FDAF9AC2F87A
:013B2300227F
:083B2400C2F98F9A30F9FD226D
:101CE60002209BE86480F8E933E83360110460F071
:101CF600ED33EC337009E8FCE9FDEAFEEBFF220464
:101D060060DED3EB9FEA9EE99DE8C2E78CF0C2F75E
:101D160095F0400CE8CCF8E9CDF9EACEFAEBCFFB2A
:101D260012206685D0F05804700320D5B3E80470FD
:101D3600075002B2D50220A592D5EC0460F7E4CC98
:101D4600C0E0C398F8603B94186008400DD0E0FBF3
:101D560002207DE4FBFAC9FC8028E830E406E4C9E9
:101D6600FBE4CAFCE830E305E4C9CACBFCE8540747
:101D76006010F8C3E913F9EA13FAEB13FBEC13FC52
:101D8600D8F130F52FC3E49CFCEF9BFFEE9AFEEDF5
:101D960099FDD0E0FBEF4E4D4C701222DB03022082
:101DA600A2EC2CFCEF33FFEE33FEED33FDED30E716
:101DB600EB02207DEF2BFFEE3AFEED39FDD0E0FB86
:101DC60050130BBB00030220A5ED13FDEE13FEEF2F
:081DD60013FFEC13FC02207D59
:101DDE00EC4D6011E8497017ED33EC3304600DE4FF
:101DEE00FCFFFEFD22E933E8330470F802209B125B
:101DFE00206658046009E4CC24815006285009025C
:101E0E0020A52840030220A2C0E0EB4A7044B9800E
:101E1E0006D0E0FB022091EF4E701CBD8008EBFF58
:101E2E00EAFEE9FD80EBE98DF0A4FEE5F0021EC7A7
:101E3E00E9CDF9EAFEEBFFEF89F0A4FCE5F0CE89DF
:101E4E00F0A42EFFE435F0CD89F0A42DFEE435F09C
:101E5E008067EF4E7005BD80D780C3EF8BF0A4ACCA
:101E6E00F0EE8BF0A42CFCE435F0F8EF8AF0A42C05
:101E7E00E5F038FCE433CB8DF0A42CFCE5F03BF818
:101E8E00EE8AF0A42CFCE5F038F8E433CF89F0A408
:101E9E002CFCE5F038CF3400CE89F0A42FFFE5F00E
:101EAE003EFEE433C98DF0A42EFEE5F039CD8AF066
:101EBE00A42FFFE5F03EFEE43DFD33D0E0FB5007DE
:101ECE000BBB000F0220A5EC2CFCEF33FFEE33FE14
:061EDE00ED33FD02207D42
:101EE4000220A5EC5D046005E85904700302209B00
:101EF400122066580460F6EC4860F2EC7004FDFEB3
:101F0400FF22C860DB2481C85009C39860025006D0
:101F14000220A29850CAF582E9294B4A7005AB8287
:101F240002209175F0007C1A7880C3EF9BEE9AED45
:101F340099400DC3EF9BFFEE9AFEED99FDE842F048
:101F4400DC23ACF0D0E0FFD0E0FED0E0FDAB82209B
:101F5400E7101BEB60BAEC2CFCEF33FFEE33FEED25
:101F640033FD02207DE803F830E705C0F075F0008A
:101F7400EF2FFFEE33FEED33FD40B830E7C280AA09
:101F840074F8CC6480CCC86480C8F582046043C310
:101F9400EB9FF5F0EA9E42F0E99D42F0E89C45F0A3
:101FA40060305018E5825FFFE582F42B5582FB50C8
:101FB400210ABA001D09B90019088016E5825BFBE5
:101FC400E582F42F5582FF50090EBE00050DBD00B9
:101FD400010CC3EB9FF5F0EA9E42F0E99D42F0E864
:0D1FE4009C45F06007CC4820E701B3EC22DB
:101FF10075F020800E75F010800575F0087D007E6B
:10200100007F003392D530D5031221D3EC33401039
:10201100EF33FFEE33FEED33FDEC33FCD5F0ED2273
:0E202100E5F0247EA2D513CC92E7CDCEFF22AF
:10202F00EDD2E7CD33EC3392D524814006E4FFFEA9
:10203F00FDFC22FCE4CFCECDCC24E0501174FF8008
:10204F00EDC3CC13CCCD13CDCE13CECF13CF0470A5
:07205F00F030D5DE0221D3B1
:10206600E9D2E7C933E833F892D5EDD2E7CD33ECC0
:0720760033FC5002B2D52239
:10207D00EC30E7100FBF000C0EBE00080DBD0004C4
:10208D000BEB6014A2D5EB13FCED92E7FD2274FF70
:10209D00FCFDFEFF22E480F8A2D574FF13FC7D80C9
:0320AD00E480EFDD
:10362200023748E493A3F8E493A34003F68001F23F
:1036320008DFF48029E493A3F85407240CC8C333A9
:10364200C4540F4420C8834004F456800146F6DF78
:10365200E4800B0102040810204080902810E47ED0
:10366200019360BCA3FF543F30E509541FFEE4936D
:10367200A360010ECF54C025E060A840B8E493A334
:10368200FAE493A3F8E493A3C8C582C8CAC583CA5F
:10369200F0A3C8C582C8CAC583CADFE9DEE780BE17
:012AB600001F
:1020B000BC000BBE0029EF8DF084FFADF022E4CC14
:1020C000F875F008EF2FFFEE33FEEC33FCEE9DECDD
:1020D000984005FCEE9DFE0FD5F0E9E4CEFD22ED23
:1020E000F8F5F0EE8420D21CFEADF075F008EF2F6D
:1020F000FFED33FD4007985006D5F0F222C398FD5E
:052100000FD5F0EA22FA
:1021050075F008758200EF2FFFEE33FECD33CDCC91
:1021150033CCC58233C5829BED9AEC99E582984014
:102125000CF582EE9BFEED9AFDEC99FC0FD5F0D6F1
:10213500E4CEFBE4CDFAE4CCF9A88222B800C1B91B
:102145000059BA002DEC8BF084CFCECDFCE5F0CB59
:10215500F97818EF2FFFEE33FEED33FDEC33FCEB92
:1021650033FB10D703994004EB99FB0FD8E5E4F94D
:10217500FA227818EF2FFFEE33FEED33FDEC33FC3A
:10218500C933C910D7059BE99A4007EC9BFCE99A2E
:10219500F90FD8E0E4C9FAE4CCFB2275F010EF2F73
:1021A500FFEE33FEED33FDCC33CCC833C810D70773
:1021B5009BEC9AE899400AED9BFDEC9AFCE899F8AE
:0E21C5000FD5F0DAE4CDFBE4CCFAE4C8F92241
:0E21D300C3E49FFFE49EFEE49DFDE49CFC221D
:1021E100EB9FF5F0EA9E42F0E99D42F0E89C45F054
:0121F10022CB
:1021F200E8600FECC313FCED13FDEE13FEEF13FFCB
:03220200D8F122EE
:10220500E8600FEFC333FFEE33FEED33FDEC33FC37
:03221500D8F122DB
:10221800BB010789828A8302236F5005E9F80223EC
:1022280063BBFE05E9F802237B89828A8302238740
:10223800BB010DE58229F582E5833AF58302236F18
:102248005007E92582F8022363BBFE07E92582F8D7
:1022580002237BE58229F582E5833AF58302238709
:10226800BB010789828A830222D65005E9F8022336
:0A227800CDBBFE05E9F80223D922D0
:10228200BB010DE58229F582E5833AF5830222D668
:102292005007E92582F80223CDBBFE07E92582F823
:0422A2000223D92218
:1022A600BB010DE58229F582E5833AF5830223A475
:1022B6005007E92582F8022397BBFE07E92582F835
:1022C6000223B0E58229F582E5833AF5830223BD30
:0C22D600ECF0A3EDF0A3EEF0A3EFF0227B
:1022E200A8828583F0D083D0821222F91222F912B9
:1022F20022F91222F9E473E493A3C583C5F0C583DE
:10230200C8C582C8F0A3C583C5F0C583C8C582C845
:0123120022A8
:10231300BB010DE58229F582E5833AF5830222E2CA
:102323005007E92582F80223E5BBFE07E92582F879
:042333000223FE2261
:10233700EF4E6012EF60010EEDBB010B89828A83BD
:10234700F0A3DFFCDEFA2289F05007F709DFFCA9CA
:0C235700F022BBFEFCF309DFFCA9F02221
:0C236300E6FC08E6FD08E6FE08E6FF22A6
:0C236F00E0FCA3E0FDA3E0FEA3E0FF22E1
:0C237B00E2FC08E2FD08E2FE08E2FF229E
:10238700E493FC740193FD740293FE740393FF229C
:0D239700E6FB08E6F908E6FA08E6CBF822B6
:0C23A400E0F8A3E0F9A3E0FAA3E0FB22BC
:0D23B000E2FB08E2F908E2FA08E2CBF822AD
:1023BD00E493F8740193F9740293FA740393FB2276
:0C23CD00ECF608EDF608EEF608EFF6223C
:0C23D900ECF208EDF208EEF208EFF22240
:1023E500D083D082E493F608740193F608740293BF
:0923F500F608740393F6740473F6
:1023FE00D083D082E493F208740193F208740293AE
:09240E00F208740393F2740473E4
:00000001FF
